:100000000EC073C087C027C027C025C024C023C02E
:1000100022C021C020C01FC01EC01DC01CC0112492
:100020001FBECFE5D1E0DEBFCDBF10E0A0E6B0E05F
:10003000E6EEF1E003C0C89531960D92A036B10707
:10004000D1F710E0A0E6B0E001C01D92A036B107E4
:10005000E1F7B5D0C7C0D4CF1F920F920FB60F9261
:1000600011242F933F938F939F93952D842D4114AB
:10007000510431F00197482E592E11F49FEF292E8B
:10008000832D332049F08150382E31F48BB78062B4
:100090008BBF8BB780648BBF2220F1F089B5222DF6
:1000A000332727FD3095280F311D12145CF42F3FA4
:1000B00031058CF0222480EC482E82E1582E2FEF5F
:1000C00030E009C02230310534F422248BB780643B
:1000D0008BBF21E030E029BD9F918F913F912F91FF
:1000E0000F900FBE0F901F9018951F920F920FB692
:1000F0000F9211248F9389B5823018F422246894CA
:1001000022F88BB780648BBF8F910F900FBE0F903A
:100110001F9018951F920F920FB60F9211248F9374
:100120003320C1F48BB780728BBF0F2EF5E03F2ECA
:10013000F02D222011F022240DC089B5823020F448
:100140002224689424F806C00F2EFCEF2F2EF02DE9
:10015000442455248F910F900FBE0F901F90189537
:10016000BB9AC39A24E6E0E2FEE48E2F9F2F01970C
:10017000F1F72150D1F7C39880E889BD81E88ABDA5
:1001800013BE19BCB89A83B7826083BF80B78064FE
:1001900080BF80B78D6080BF8AE78DBD89B78460DE
:1001A00089BF85B7836085BF8BB780648BBFB998E3
:1001B000C19AA99A8BB780628BBF78940895CFE5D6
:1001C000D1E0DEBFCDBF22244424552460E1362E89
:1001D000C7DF332485B7806285BF889585B78F7D5B
:0601E00085BFF8CFFFCF40
:00000001FF
